:100000000040002051280000392800003B28000053
:1000100000000000000000000000000000000000E0
:10002000000000000000000000000000392800006F
:1000300000000000000000003928000039280000FE
:10004000392800003928000039280000392800002C
:10005000392800003928000039280000392800001C
:10006000392800003928000039280000392800000C
:1000700039280000392800003928000039280000FC
:1000800039280000392800003928000039280000EC
:1000900039280000392800003928000039280000DC
:1000A00039280000392800003928000039280000CC
:1000B0000000000000000000000000000000000040
:1000C0000448054B10B5834203D0044B002B00D0ED
:1000D000984710BDA4010020A401002000000000EA
:1000E00006480749091A8B10C90FC91810B54910DD
:1000F00003D0044B002B00D0984710BDA401002072
:10010000A40100200000000010B5074C2378002B4C
:1001100009D1FFF7D5FF054B002B02D0044800E0C2
:1001200000BF0123237010BDC801002000000000A3
:1001300098790000054B10B5002B03D00449054801
:1001400000E000BFFFF7CCFF10BDC046000000007C
:10015000CC01002098790000402292029A1A92461F
:100160007047C046174B002B00D1134B9D46FFF73D
:10017000F3FF00218B460F461348144A121A05F06C
:100180009FFD0E4B002B00D098470D4B002B00D04D
:1001900098470020002104000D000D48002802D0DF
:1001A0000C4800E000BF05F093FD2000290002F09C
:1001B000B7FE05F051FDC046000008000000000039
:1001C0004528000000400020C8010020B81F002082
:1001D0000000000000000000084B00221A70084BCD
:1001E000084A1A80084B984206D8044B01221A701C
:1001F000064B1A70012070470020FCE70C0200201B
:10020000C0000020FF030000330600000B020020A6
:100210000023002204E05900095A52180133DBB2CE
:100220000F2BF8D9100980B27047000010B5164B9B
:100230001B88834205D01AD91A1A272A11D8124BC3
:100240001880114B1B888B421BD35B1A9800C01877
:1002500080000E4B984200D9180080B202F02EFDAB
:1002600010BD272BEDD9283B074A1380E9E7C21AB6
:10027000272A02D8044B1880E3E72833024A138068
:10028000DFE70020E5E7C046E4010020EB4F000077
:1002900010B5164B01221A70154B962292001A8047
:1002A000144B984205D8C023DB00984219D3012093
:1002B00010BD012001F016FD042001F03DFD1E28B7
:1002C00001D80120F4E7002001F00CFD042001F02A
:1002D0005BFD064B00221A70074B01321A7000209A
:1002E000E6E7054B01221A700220E1E70C0200202C
:1002F000C0000020460700000B02002010B5154B7F
:1003000001221A70144BC7321A80144B984207D836
:10031000134B98421CD8134B01221A70032010BDB6
:10032000012001F0DFFC042001F006FD1E2801D8A9
:100330000220F4E7002001F0D5FC042001F024FDA8
:10034000044B00221A70074B01321A700020E6E7B6
:100350000220E4E70C020020C00000204607000055
:10036000CC0400000B02002010B5114B01221A70C2
:10037000104BC7321A80104B984201D8032010BD91
:10038000012001F0AFFC042001F0D6FC1E2801D8AA
:100390000320F4E7002001F0A5FC042001F0F4FCA8
:1003A000034B00221A70054B01321A700020E6E759
:1003B0000C020020C0000020460700000B020020B5
:1003C000014B18707047C0460802002010B502F0BB
:1003D00043FC002002F072FC02F052FC10BD000051
:1003E00010B582B001AB00221A80002407E0A1B250
:1003F000022001F08DFA01AB18550134E4B2012C52
:10040000F5D90121042001F083FA0122024001AB59
:10041000997809025B785B189BB21D490988081C12
:10042000994200D9181C80B2002A16D1194B1B889A
:10043000834222D028339BB2164A13801A1C83426F
:1004400000D9021C91B2134B1A80FFF7EFFE124B3A
:100450001B78012B17D002B010BD0E4B00221A8062
:100460000021FFF7E3FE0D4B1B78002B02D102F0B9
:1004700007FCECE702F01AFCE9E70100FFF7D6FE03
:1004800002F014FCE3E7044B00221A70E3E7C046D5
:10049000C0000020E60100200B020020080200201E
:1004A00070B50021264802F081FA264B1B78264AB7
:1004B000590050520F2B04D05A1C0F2A05D8D3B222
:1004C00004E0224A01211170F6E700231D4A13704F
:1004D0001E4B1B78012B03D000251D4B1D7070BDDA
:1004E0001948FFF795FE0400194B1B78022B1DD00D
:1004F00007D8002B0BD0012B1CD1FFF7C9FE05003C
:1005000008E0032B16D1FFF72FFF050002E0FFF7ED
:1005100063FE0500220AD2B20821A32001F016F9D9
:10052000E2B20921A32001F011F9D6E7FFF7E6FEB8
:100530000500EFE72000FFF74FFE0500EAE7C046A1
:1005400000003A4009020020E80100200A020020D1
:100550000D02002070B582B0164E0121300002F06D
:1005600025FA04001449154D0200280005F088FB07
:10057000280002F055FC220AD2B20A21A32001F081
:10058000E5F8E2B20B21A32001F0E0F800213000F1
:1005900002F00CFA02000A4B1B780A490A4800785C
:1005A0000090280005F06CFB280002F039FC02B036
:1005B00070BDC04600003A40FC65000010020020FB
:1005C0000C0200200C6600000D020020134B984224
:1005D00015D94A33984214D9114B984213D9A823FC
:1005E0001B01984211D90F4B984210D90E4B9842DB
:1005F0000FD980235B0198420DD2062000E0002035
:1006000070470120FCE70220FAE70320F8E7042006
:10061000F6E70520F4E7FF20F2E7C0464E040000AD
:1006200031050000CB0A0000170B000010B50100D7
:100630000023002005E05A00525A101880B20133FE
:10064000DBB2132BF7D9142105F090F980B210BD5D
:1006500010B5032817D006281AD000280ED0184B42
:100660001B78002B19D1052001F08EFB012001F031
:100670003FFB134B01221A70012003E0104B0022B4
:100680001A70023010BD0E4B00221A700020F9E7DC
:100690000B4B00221A700220F4E7052001F04CFBFE
:1006A000142801D80120EDE7002001F021FB0520EE
:1006B00001F06AFB024B00221A700220E2E7C046FA
:1006C0007602002010B5032801D1002010BD0120C2
:1006D000FFF776FE0220F9E710B505280CD004D804
:1006E00000280BD0012802D110BD062808D0002018
:1006F000FFF766FE0020F7E70120F5E70220F3E7A9
:100700000220F1E710B582B00221094802F04EF94B
:100710000200084B1B780849084C094800780090F3
:10072000200005F0ADFA200002F07AFB02B010BD07
:1007300000003A4076020020306600007802002077
:100740007702002070B50221234802F02FF9234BD5
:100750001B78234A59005052132B0DD05A1C132AD0
:100760000ED8D3B21D4A13701E4B1B78012B09D033
:1007700000251D4B1D7070BD1A4A01211170EDE757
:100780000023EFE71648FFF751FF0400FFF71EFFB5
:10079000154B1B78012B16D0022B18D0002B03D041
:1007A000FFF79AFF050002E0FFF796FF0500220A17
:1007B000D2B20621A32000F0C9FFE2B20721A32094
:1007C00000F0C4FFD5E7FFF743FF0500EFE7FFF7B1
:1007D00079FF0500EBE7C04600003A4074020020B4
:1007E0004C020020750200207702002070B53B4DBE
:1007F0000021280002F01AFA04000121280002F06A
:1008000015FA4000C0B22418E4B20221280002F018
:100810000DFA8000C0B22418E4B20321280002F0CF
:1008200005FAC000C0B22418E4B200220121A320BE
:1008300000F08CFF22000321A32000F087FF00239B
:1008400008E05C1CA4B2264AD25C2100012000F022
:100850007DFF2300012BF4D9002308E05C1CA4B227
:10086000204AD25C2100312000F070FF2300182BB9
:10087000F4D9002308E05C1CA4B21B4AD25C21001E
:10088000322000F063FF2300182BF4D9002308E086
:100890005C1CA4B2154AD25C2100332000F056FF44
:1008A0002300182BF4D9002308E05C1CA4B2104AE2
:1008B000D25C2100342000F049FF2300182BF4D92A
:1008C000002308E05C1CA4B20A4AD25C2100352057
:1008D00000F03CFF2300182BF4D970BD0000044049
:1008E0008C6600005466000070660000C866000058
:1008F000AC6600009066000070B5184B1C78184B71
:100900001D78002816D001281DD0144B1B785C40A0
:1009100010239C4305D1124B1B785D4047239D4318
:1009200007D0012000F05AFB01220121302000F005
:100930000DFF70BDC9434AB22240084B1A70012115
:1009400000F004FFE1E7C9434AB22A40044B1A70A1
:100950000221002000F0FAFED7E7C046F402002092
:10096000C200002070B5174B1C78174B1D7800286B
:1009700016D001281CD0134B1B785C4010239C43DD
:1009800005D1114B1B785D4047239D4307D00120C3
:1009900000F024FB01220121302000F0D7FE70BDC1
:1009A0000A002243074B1A70012100F0CFFEE2E754
:1009B0000A002A43044B1A700221002000F0C6FEF0
:1009C000D9E7C046F4020020C200002000B585B07F
:1009D00000900191029203931100019802F026F910
:1009E000012812D000236A465373937B013393731B
:1009F0006B465A7B1B7B9A420FD36A465373012383
:100A000013706B46187805B000BD6B465B7B0133F5
:100A10006A46537300239373EAE76A46927B9342D4
:100A200004D86A46937300231370EAE702236A46E8
:100A30001370E6E770B5194B186859689A68DB6857
:100A4000FFF7C4FF0400012814D0002817D0144B6E
:100A5000186859689A68DB68FFF7B8FF0500012835
:100A600012D0002815D00F490F482B00220005F0A6
:100A700007F970BD02210020FFF73EFFE7E70221E2
:100A80000020FFF76FFFE2E701210020FFF734FFAE
:100A9000E9E701210020FFF765FFE4E7C402002039
:100AA000B4020020E4660000F802002010B50E4BEE
:100AB000186859689A68DB68FFF788FF0400012806
:100AC00007D000280AD009490948220005F0D8F8C3
:100AD00010BD08210020FFF70FFFF4E708210020D8
:100AE000FFF740FFEFE7C046D40200201067000088
:100AF000F802002010B50E4B186859689A68DB6838
:100B0000FFF764FF0400012807D000280AD0094934
:100B10000948220005F0B4F810BD20210020FFF79D
:100B2000EBFEF4E720210020FFF71CFFEFE7C046B3
:100B3000E402002034670000F8020020F0B5C64649
:100B400000B5C0B007000E00150000230093FC2282
:100B5000002101A805F0B4F8FF2332009A43904623
:100B6000802252004146684605F0D8F8002301E093
:100B700001339BB2AAB29A4208D9FF243440E41848
:100B8000FF2CF5DCFA5C69460A55F1E741466846F8
:100B900002F020F840B080BCB846F0BD10B51C4B48
:100BA00004221A600320586098600221D9601961FC
:100BB0005961C024195118310434195104341951A0
:100BC000043419510434195104341951B934FF341F
:100BD0001951E42189005A5004315A5004315A50B5
:100BE000043185245C500521E824A4001951043403
:100BF0001851F42080001A5004301A5004301A5052
:100C000004301950F82189005A5004315A5010BD4F
:100C100034030020014B8000C0587047340300208B
:100C20000023182B05D8054AD25C824203D0013339
:100C3000F7E7002000E001207047C046C400002014
:100C40000023092B05D8054AD25C824203D0013328
:100C5000F7E7002070470120FCE7C046EC000020C9
:100C60000023092B05D8054AD25C824203D0013308
:100C7000F7E7002070470120FCE7C046E0000020B5
:100C800070B50400FFF7C6FF050001F0BDFE854208
:100C900000D070BD002CFCD100220121302000F0DA
:100CA00055FDF6E7F8B50700FFF7B4FF0500022889
:100CB00004D93800FFF7D4FF002811D1F8BDA1B244
:100CC000380000F025FE36180134AB1EA342F6D8DA
:100CD0000136F2B2013DA9B2380000F037FDEDE770
:100CE00000240026F1E7000070B50600FFF7B8FF0A
:100CF000002818D170BD284B1B5DED180134300061
:100D0000FFF788FF831EA342F5D8EDB20138224BCE
:100D10001B5C9D42EED11C36F3B2042BEAD89E0038
:100D20001E4B9B599F4600240025E8E743220221E1
:100D3000F42000F00BFDF420FFF7B4FF02220221A3
:100D4000F92000F003FDF920FFF7ACFFD2E74322C2
:100D50000221F52000F0FAFCF520FFF7A3FFC9E718
:100D60000221E62000F0D4FD032808D074220221DD
:100D7000F62000F0EBFCF620FFF794FFBAE7E33033
:100D800000F0AAFFB6E7E72000F0A6FFB2E7E820F0
:100D900000F0A2FFAEE7C046840700205C670000B9
:100DA00070B5202807D8002812D0202810D880003D
:100DB0003F4B1B589F46402817D080235B02984228
:100DC00006D13C4B00221A7002E03A4B00221A7006
:100DD00070BD384B00221A70FAE7364B00221A70A9
:100DE000F6E7344B00221A70F2E7324B00221A70F9
:100DF000EEE701F0FFFD041E4FD02F4B1D782800B9
:100E0000FFF70EFF002817D02800FFF719FF002872
:100E100004D02800FFF7FEFEA04225D02800FFF7EF
:100E2000F9FE0600502800D9502624485022FF2100
:100E300004F046FF002420E0204C5022FF21200037
:100E400004F03EFF25701AE01B4B1A5DA1B228008A
:100E500000F07CFC01342800FFF7DCFEA042F3D850
:100E60002800FFF741FFD9E70024F4E7A1B22800EA
:100E700000F04EFD114B18550134B442F6D38022D8
:100E80000D4C1201FF21200004F01AFF0B4801F065
:100E9000C5FD200001F0CEFD9AE708485022FF2151
:100EA00004F00EFFEBE7054B1878FFF7E9FE8FE73C
:100EB00070670000F600002084070020340700203F
:100EC00010B501F0DBFD041E03D1FFF767FE200023
:100ED00010BD064801F0A2FD054801F0ABFD054834
:100EE00001F0B6FD01F0BAFDEFE7C046340700207F
:100EF00084070020A10D00000120704710B50020DC
:100F000000F002FF002000F005FF012000F03CFF90
:100F1000022000F039FF034B1878002800D110BDE3
:100F20000420FCE7F700002010B5012000F0ECFEE3
:100F3000002000F0EFFE022000F026FF03210C4805
:100F400001F07CFE0B4B1B78002B0ED00A4B18785F
:100F5000012801D0012010BD084B1B78002BFAD0CE
:100F6000064A013B13700130F5E70420F3E7C04661
:100F700000050440F7000020840F0020860F0020A9
:100F800010B5012000F0C0FE0321064801F056FE16
:100F9000012000F0D1FE022801D9032010BD02205B
:100FA000FCE7C0460005044010B5002000F0ACFE90
:100FB000012000F0AFFE012000F0E6FE032106480C
:100FC00001F043FE022000F0B7FE022801D9012003
:100FD00010BD0320FCE7C04600050440084B187014
:100FE000012803D0074B00221A707047054B1B786D
:100FF000FF2B01D00133DBB2024A1370F5E7C04684
:10100000840F0020860F0020014B18707047C046E7
:10101000F700002010B5124B1A78042A1CD8930050
:10102000104AD3589F46FFF767FF0D4B187010BD4D
:10103000FFF77AFF0A4B1870F9E7FFF7A1FF084B9B
:101040001870F4E7FFF7B0FF054B1870EFE7FFF7F4
:1010500055FF034B1870EAE7014B00221A70E6E7D0
:10106000850F0020F467000070B582B001F0DEFB50
:10107000002834D1012401F0C1F801F093FE00F002
:101080004FFE01F023FD00282CD000F0A3FAF3223C
:101090000121002000F05AFBFFF712FF00F090FC46
:1010A000FFF794F9FFF7A2FB00F00AFE62B601F029
:1010B0004BF801F0ACF80D480D4B020062CB62C258
:1010C0001B68136001F0ACFE0A230193F82104228F
:1010D000490201A8FFF732FD200002B070BD01BE39
:1010E0000424C8E7034801F09BFECEE7880F0020E8
:1010F000246800000868000030B59DB001F07EF85B
:10110000114C21000C317022684604F007FE216862
:101110006268A3680D4801F02FFC00F039F9012046
:1011200000F0D2F80A480B4B0200190038C938C247
:1011300018C918C20B78137001F072FE012000F07C
:10114000DDFD02201DB030BD2473000000003A40D8
:10115000880F00203468000070B501F04FF80121BD
:10116000042000F0D5FB012813D00F4A0F4B31CBE0
:1011700031C211001A680A601B790B7102240A48F7
:1011800001F04EFE01220121042000F0DFFA2000D0
:1011900070BD054A064B31CB31C2110005CB05C1EC
:1011A0001B780B700324EAE7880F002064680000B6
:1011B0004C68000010B500F015FCFFF72BFF012173
:1011C000052000F0A5FBC00704D4032401F016F8A5
:1011D000200010BD0424F9E770B501F00FF8FFF707
:1011E00019FF0748074B0200190038C938C20B68BD
:1011F00013600B79137101F013FE052070BDC0461A
:10120000880F00207868000070B500F0F7FF00201C
:10121000FFF7FAFE002000F057F80648064B0200E0
:10122000190038C938C218C918C201F0F9FD0520E3
:1012300070BDC046880F00208C68000010B50528DE
:101240001BD880000E4B1B589F460020FFF70CFF59
:1012500010BD0020FFF750FFFAE70020FFF77CFFEA
:10126000F6E70020FFF7A6FFF2E70020FFF7CCFF2C
:10127000EEE70020FFF7B0FFEAE70020E8E7C0460E
:10128000A068000010B50F4C2078FFF7D7FF207042
:1012900001280DD903280DD002280DD004280DD027
:1012A00005280DD0062801D0002002E0012000E032
:1012B000012010BD0120FCE70120FAE70120F8E73A
:1012C0000120F6E7870F002010B500282BD0012859
:1012D00028D12A4C0621200001F0B0FC0521200075
:1012E00001F0ACFC0A2000F07BFD0621244801F04F
:1012F000A5FC0121234801F0A1FC022000F070FDB3
:101300000521214801F09AFC022000F069FD01212D
:101310001E4801F093FC022000F062FD072120002E
:1013200001F08CFC10BD154C0721200001F08DFC54
:10133000022000F055FD0121144801F086FC022036
:1013400000F04EFD0521104801F07FFC022000F066
:1013500047FD06210A4801F078FC0121094801F007
:1013600074FC022000F03CFD0621200001F06DFC21
:101370000521200001F069FCD4E7C04600040440C8
:101380000000044000010440000504400006044041
:101390000A4B022018700A4A5A6007229A600521F7
:1013A000197300225A739A73064B187006485860D6
:1013B0000420986019735A739A737047C40F002001
:1013C00000000440D40F00200004044070B50B4B13
:1013D000186859689A68DB68FFF7F8FA0500084B47
:1013E000186859689A68DB68FFF7F0FA0300054946
:1013F000054C2A00200004F043FC70BDC40F0020FF
:10140000D40F0020B8680000E40F002010B50021C0
:101410005AE00022C254C3181C00503422705034C9
:101420002270503422705034227050342270503464
:1014300022708C24A4001C192270A024A4001C1962
:101440002270B424A4001C192270C824A4001C1902
:101450002270DC24A4001C192270F024A4001C19A2
:1014600022708224E4001C1922708C24E4001C19D0
:1014700022709624E4001C192270A024E4001C1998
:101480002270B924E4001C192270C324E4001C1942
:101490002270CD24E4001C192270D724E4001C190A
:1014A0002270E124E4001C192270EB24E4001C19D2
:1014B0002270822424011C19227087242401A4464E
:1014C00063441A70013189B24F2974D8CBB2002B12
:1014D0009FD10022C254C3181A0050320124147044
:1014E00050320134147050320134147050320134CF
:1014F000147050320134147050322B3414708C221A
:1015000092009A1801341470A02292009A180134A3
:101510001470B42292009A1801341470C8229200F8
:101520009A1801341470DC2292009A180134147055
:10153000F02292009A186E3414708222D2009A1807
:10154000413414708C22D2009A18013414709622FF
:10155000D2009A1801341470A022D2009A180134D3
:101560001470B922D2009A1801341470C322D20028
:101570009A1801341470CD22D2009A180B341470CA
:10158000D722D2009A1801341470E122D2009A189E
:1015900001341470EB22D2009A18013414708222A4
:1015A00012019A1801341470872212019446634480
:1015B000F9221A7086E7012308E0C218A021C900A9
:1015C0008C4662440021117001339BB2C72BF4D9C1
:1015D00010BD000010B50248FFF718FF10BDC0464F
:1015E0002010002010B535280BD9F92810D8A328D1
:1015F0000ED35D30C4B2562C0AD8A000514C2058EE
:101600008746352804D880004F4C205887468B5495
:1016100010BD8A1850321370FAE78A18A03213707E
:10162000F6E78A18F0321370F2E78A184132FF3277
:101630001370EDE78A189132FF321370E8E78A18C9
:10164000E132FF321370E3E78A188C2189008C465F
:1016500062441370DCE78A18A02189008C4662443A
:101660001370D5E78A18B42189008C466244137040
:10167000CEE78A18C82189008C4662441370C7E7F8
:101680008A18DC2189008C4662441370C0E78A18EE
:10169000F02189008C4662441370B9E78A188221D0
:1016A000C9008C4662441370B2E78A188C21C900C5
:1016B0008C4662441370ABE78A189621C9008C46A9
:1016C00062441370A4E78A18A021C9008C466244C2
:1016D00013709DE78A18B921C9008C4662441370C3
:1016E00096E78A18C321C9008C46624413708FE7BD
:1016F0008A18CD21C9008C466244137088E78A1885
:10170000D721C9008C466244137081E78A18E12111
:10171000C9008C46624413707AE78A18EB21C9002D
:101720008C466244137073E78A18822109018C4643
:10173000624413706CE78A18872109018C46624461
:10174000137065E7E06800003C6A000010B5130004
:10175000024C0A002100FFF745FF10BD20100020B9
:1017600035280DD9F92800D9CBE0A3280FD35D3057
:10177000C3B2562B00D9C0E09800634B1B589F465C
:10178000352800D9BBE08000604B1B589F46FF20E6
:10179000B4E0885CC0B2B1E08A1850321078C0B2B0
:1017A000ACE08A18A0321078C0B2A7E08A18F032F4
:1017B0001078C0B2A2E08A184132FF321078C0B26D
:1017C0009CE08A189132FF321078C0B296E08A18F5
:1017D000E132FF321078C0B290E08A188C239B006F
:1017E0009C4662441078C0B288E08A18A0239B000F
:1017F0009C4662441078C0B280E08A18B4239B00F3
:101800009C4662441078C0B278E08A18C8239B00D6
:101810009C4662441078C0B270E08A18DC239B00BA
:101820009C4662441078C0B268E08A18F0239B009E
:101830009C4662441078C0B260E08A188223DB00C4
:101840009C4662441078C0B258E08A188C23DB00B2
:101850009C4662441078C0B250E08A189623DB00A0
:101860009C4662441078C0B248E08A18A023DB008E
:101870009C4662441078C0B240E08A18B923DB006D
:101880009C4662441078C0B238E08A18C323DB005B
:101890009C4662441078C0B230E08A18CD23DB0049
:1018A0009C4662441078C0B228E08A18D723DB0037
:1018B0009C4662441078C0B220E08A18E123DB0025
:1018C0009C4662441078C0B218E08A18EB23DB0013
:1018D0009C4662441078C0B210E08A1882231B0133
:1018E0009C4662441078C0B208E0891887231B0127
:1018F0009C4661440878C0B200E0FF207047FF209A
:10190000FCE7FF20FAE7C046146B0000706C000093
:1019100010B50A00024B1900FFF722FF10BDC046A8
:1019200020100020C82301225242C2507047C82311
:10193000C058704710B50248FFF7F9FF10BDC04608
:10194000E8180020C823C3580133C72B09D8C8237F
:10195000C2580132C250C2588154C358C35C0020DF
:1019600070470120FCE710B50300C8228258002A06
:101970001ADBC72A1ADCC8228258002A06D100784E
:10198000C0B2C8215A58013A5A5010BD0078C0B2AE
:10199000002204E0541C195DC9B299542200C821E8
:1019A00059589142F6DCECE7FF20EEE7FF20ECE728
:1019B00010B50248FFF7D7FF10BDC046E818002059
:1019C00010B50248FFF7AEFF10BDC046E818002072
:1019D00010B50100024B1800FFF7B4FF10BDC04660
:1019E000E818002010B584B0FFF7A4FF4A4B186038
:1019F000FFF7DEFF494A1070052804D848D8800058
:101A0000474B1B589F46E72800D17BE0E82802D1CE
:101A100000F060FB3CE0E6283AD100F0D7FA37E06E
:101A20000121404800F0C2FF02003F493F4C200026
:101A300004F026F9200001F0F3F900236A46138030
:101A400001930622002102A804F03AF904236A4611
:101A50001370033B537002226946712001F06EF847
:101A6000021E1DD1324B1B78012B22D0304B01229C
:101A70001A70002201210220FFF768FE00220221D5
:101A80000220FFF763FE0120FFF7A8FA00F0BAF981
:101A9000224B1B78FF2B01D0022B36D104B010BD96
:101AA0002449224C200004F0EBF8200001F0B8F9A2
:101AB000D8E71F4B00221A70FF3201210220FFF7E6
:101AC00045FE032202210220FFF740FEDBE7FEF77E
:101AD00041FDFEF717FEDBE7FEF7E2FC04210020E4
:101AE000FEF740FFD4E7FEF77BFCD1E7FEF72AFEC6
:101AF000CEE7FFF76BFCFEF79DFFFEF7D7FFFEF783
:101B0000F9FFC5E700F09CFAC2E7034A12680A49E8
:101B1000064804F0B5F8C1E7E0180020E4180020FA
:101B2000986D000000003A40486D0000B419002094
:101B3000F8000020586D0000806D000010B50024F2
:101B400000E00134FF2C0AD8054B1B5D002BF8D0B8
:101B5000E0B2FFF73DFF024B00221A55F1E710BD3E
:101B6000F019002010B50420FFF732FF10BD10B5AA
:101B70000220FFF72DFF10BD10B50320FFF728FF4F
:101B800010BD10B50520FFF723FF10BD10B50020D4
:101B9000FFF71EFF0120FFF71BFF10BD10B501F07E
:101BA000D5F8394A136801331360384A1368013392
:101BB0001360374B1B78012B17D0364B1B78012B4A
:101BC00018D0354B1B78012B19D0344A13680133D8
:101BD0001360334A93423CD02B4B1868FA2189009A
:101BE00004F034F8002937D010BD2E4A13680133B1
:101BF0001360E2E72C4A136801331360E1E7FFF753
:101C00009DFF214B18680A2104F020F8002917D005
:101C10001D4B18680F2104F019F8002913D01A4B36
:101C20001868142104F012F800290FD0164B186818
:101C3000642104F00BF80029C7D1FFF7A2FFC4E725
:101C4000FFF790FFE4E7FFF792FFE8E7FFF794FF65
:101C5000ECE700F0CBFABFE7FFF798FF134A1368F1
:101C600001331360124B1B78012B08D0114B1B78EA
:101C7000012BB9D1104A136801331360B4E70F4A3E
:101C8000136801331360F1E70C1B0020FC1A0020DD
:101C9000F31A0020F21A0020F41A0020141B00206E
:101CA000C4090000081B0020041B0020101B00209A
:101CB000F11A0020F01A0020F81A0020001B002062
:101CC000002303E0034A0021D1540133FF2BF9D94B
:101CD0007047C046F0190020014B01221A5470478A
:101CE000F0190020014B18707047C046F11A00200F
:101CF000014B18707047C046F01A0020014B187055
:101D00007047C046F41A0020014B18707047C04657
:101D1000F31A0020014B18707047C046F21A0020D9
:101D200010B5044801F01CF8002800D110BD00F0E7
:101D3000E5FFFBE79D1B0000062815D880000B4B34
:101D40001B589F460A4B187870470A4B1878FBE7D8
:101D5000094B1878F8E7094B1878F5E7084B18781D
:101D6000F2E7084B1878EFE7FF20EDE7B06D0000D1
:101D7000FC1A0020081B0020041B0020001B002070
:101D8000F81A0020141B0020062806D880000D4BEE
:101D90001B589F460C4B00221A6070470B4B0022C9
:101DA0001A60FAE70A4B00221A60F6E7094B002294
:101DB0001A60F2E7084B00221A60EEE7074B002298
:101DC0001A60EAE7CC6D0000FC1A0020081B002016
:101DD000041B0020001B0020F81A0020141B002008
:101DE000002107E0C04601339BB2054A9342F9D96E
:101DF000013189B2814201D20023F6E70020704709
:101E0000F015000000B5C1B000230093FB220021B3
:101E100001A803F055FFFF21684600F0DBFF002812
:101E200005D16B461B78002B01D0312B03D000F07D
:101E3000E5FF41B000BD0130FFF7CAFDF7E7000044
:101E400070B505001000002610E0B3005B59D40007
:101E5000E340FF24234043401C40000A064BA400FB
:101E6000E35858400132032AEFD901368E4201D29D
:101E70000022F8E770BDC046786E0000020E030C29
:101E80001B061B0C1A43030A1B04FF2109040B4009
:101E9000134300061843704710B572B600290AD0E4
:101EA0000C005F34E4010E4B1B780A2B05D00B2B82
:101EB0000DD062B610BD0C00F5E7E0225200914251
:101EC000F5D3413AFF3A2100FEF738FEF1E7B63389
:101ED000FF339942EDD280222100FEF72FFEE8E782
:101EE000F900002070B596B04022002106A803F04A
:101EF000E7FE00230593013B04932E4B1B780A2B2E
:101F000006D00B2B08D00026002572B600240EE068
:101F1000294E88256D02F8E7284EC025AD01F4E76B
:101F2000049A102106A8FFF78BFF04900134E023E8
:101F30009B009C420FD2A2015219402106A800F03A
:101F400041FE1F4B9C42EBD1049A0F2106A8FFF7DC
:101F500077FF0490EAE7049BDB43049332000421FB
:101F600005A800F02FFE0126002400E00134032C18
:101F700007D8059D0498FFF781FF8542F6D000261B
:101F8000F4E762B60498FFF779FF02000D490E4DA1
:101F9000059B03930A230293064B1B78019300943D
:101FA0003300280003F06CFE280000F039FF3000F9
:101FB00016B070BDF9000020FCEF0100FC0F01001D
:101FC0007F030000E86D00001C1B002070B572B696
:101FD0000024002507E020001130FF30000200F04F
:101FE00011FE05000134DF2C0DD8124B1B780A2B93
:101FF000F1D00B2B03D0200030300002EFE720009F
:1020000030300002EBE762B60B480C4B020052CBBB
:1020100052C2198811809B78937000F001FF43220F
:102020000221F620FFF792FBF620FEF73BFE280088
:1020300070BDC046F90000201C1B0020386E000057
:1020400070B5A0B00221E720FFF762FC0502032172
:10205000E720FFF75DFC2D1800240BE0211D89B25D
:10206000E720FFF755FC6B461855174B1A88801868
:10207000188001347F2CF1D9002D10D10026124B8D
:102080001B881249124C2A00200003F0F9FD2000A1
:1020900000F0C6FE002E08D1300020B070BD29002F
:1020A0006846FFF7F9FE0126E9E7EDB200220221BA
:1020B000F720FFF74BFB2A000321F720FFF746FB31
:1020C000F720FEF7EFFDE7E7181B0020486E000041
:1020D0001C1B002010B50221E820FFF719FC84B278
:1020E0002402A4B20321E820FFF712FC80B22418D6
:1020F000A4B2144B1B88A3420FD00024FFF7F2FEBA
:1021000001280CD1002C0BD000220221F730FFF760
:102110001DFBF820FEF7C6FD12E00124EEE70024C7
:1021200001220221F820FFF711FBF820FEF7BAFD8B
:1021300001220221F920FFF709FBF920FEF7B2FD89
:10214000200010BD181B002010B503F011FA08285C
:1021500023D0102830D0012810D003F009FA020053
:102160001D491E4C200003F08BFD01220521A320F8
:10217000FFF7ECFA200000F053FE0DE01849174C71
:102180000122200003F07CFD200000F049FE022225
:102190000521A320FFF7DAFA10BD12490F4C0822DF
:1021A000200003F06DFD04220521A320FFF7CEFAE5
:1021B000200000F035FEEFE70B49084C102220000C
:1021C00003F05EFD08220521A320FFF7BFFA2000DF
:1021D00000F026FEE0E7C046D8720000801B002019
:1021E0007872000098720000B872000010B50248C2
:1021F00000F016FE10BDC046FC72000010B503F0E2
:10220000ADFB03F0ABFB0620FFF7BEFD10BD10B524
:1022100003F0A4FB00F062FE00F00EFE00F03AFEB8
:1022200000F04CFE00F074FE10BD10B500F062FA34
:1022300000F015F800F04CFA00F0BEF800F0F0F8ED
:1022400010BD10B500F0B7F800F0E9F800F03EFA64
:1022500010BD10B5FFF7E9FFFFF7F3FF10BD10B594
:102260000021012002F0D6FF05220021012002F00A
:1022700011FF0021012002F0A7FF0A21012002F036
:10228000C9FF00220A21012002F004FF0A210120D7
:1022900002F09AFF0B21012002F0BCFF04220B2167
:1022A000012002F0F7FE0B21012002F08DFF012139
:1022B000012002F0AFFF02220121012002F0EAFE1C
:1022C0000121012002F080FF0221012002F0A2FF83
:1022D00003220221012002F0DDFE0221012002F092
:1022E00073FF0321012002F095FF33220321012017
:1022F00002F0D0FE0321012002F066FF042101203C
:1023000002F088FF04220421012002F0C3FE042110
:10231000012002F059FF0521012002F07BFF00227D
:102320000521012002F0B6FE0521012002F04CFF3C
:102330000621012002F06EFF33220621012002F067
:10234000A9FE0621012002F03FFF0721012002F033
:1023500061FF04220721012002F09CFE07210120D9
:1023600002F032FF0821012002F054FF032208216D
:10237000012002F08FFE0821012002F025FF092133
:10238000012002F047FF00220921012002F082FE15
:102390000921012002F018FF0021032002F03AFF7A
:1023A000002304220021032002F098FE00210320D4
:1023B00002F00AFF10BD704710B500220121122063
:1023C00002F0DCFE01220121002002F0D7FE0222F1
:1023D0000121022002F0D2FE03220121032002F09B
:1023E000CDFE04220121042002F0C8FE802040011D
:1023F00003F092FA002003F09FFA03F0AFFA0622EE
:102400000121062002F0BAFE082201210B2002F071
:10241000B5FE052201210D2002F0B0FE10BD70476F
:1024200010B5754A754C0021200000F0BFFE744ABB
:102430000121200000F0BAFE724A0221200000F0C3
:10244000B5FE714A0321200000F0B0FE6F4A06215C
:10245000200000F0ABFE6E4A0721200000F0A6FE2F
:102460006C4A6D4C0021200000F0A0FE6B4A012157
:10247000200000F09BFE6A4A0221200000F096FE38
:10248000684A0321200000F091FE674A07212000DE
:1024900000F08CFE654A664C0021200000F086FEAC
:1024A000644A0121200000F081FE634A02212000DD
:1024B00000F07CFE614A0321200000F077FE604AB4
:1024C0000421200000F072FE5E4A0521200000F089
:1024D0006DFE5D4A0621200000F068FE5B4A072180
:1024E000200000F063FE5A4A5A4C0021200000F000
:1024F0005DFE594A0121200000F058FE574A022192
:10250000200000F053FE564A0321200000F04EFE4A
:10251000544A0421200000F049FE534A05212000BE
:1025200000F044FE514A0621200000F03FFE504AD0
:10253000504C0021200000F039FE4F4A01212000BC
:1025400000F034FE4D4A0221200000F02FFE4C4ADC
:102550000321200000F02AFE4A4A0421200000F056
:1025600025FE494A0521200000F020FE474A0621A9
:10257000200000F01BFE464A0721200000F016FE56
:10258000444A454C0021200000F010FE434A03213C
:10259000200000F00BFE424A0521200000F006FE5C
:1025A000404A0621200000F001FE3F4A072120009A
:1025B00000F0FCFD3D4A3E4C0021200000F0F6FDFD
:1025C0003C4A0121200000F0F1FD3B4A042120009B
:1025D00000F0ECFD394A0521200000F0E7FD384A03
:1025E000384C0021200000F0E1FD374A0121200095
:1025F00000F0DCFD10BDC04654780000000004402F
:102600006C780000847800009C780000F47700006B
:102610000C78000024750000000104400C750000D7
:102620009C750000B4750000E4780000DC740000C4
:1026300000020440F4740000C4740000B478000088
:102640001C77000004770000E4750000FC750000B2
:10265000BC760000000304402C760000DC7700000C
:10266000C4770000EC760000D47600003C750000D2
:102670008C76000000040440A4760000747600000C
:102680005C7600003C78000024780000CC780000E4
:10269000647700003477000000050440CC7500002A
:1026A000147600004C7700007C77000084750000F1
:1026B000000604404476000094770000AC770000E8
:1026C00054750000000704406C750000704700005E
:1026D000064B0722C02189005A5040315A501968D0
:1026E000802212060A431A607047C04600003A4032
:1026F00001BE704770B5302002F044FF394C802590
:102700002D062563384802F001FA002002F038FC5B
:10271000A36A0C229343A362A36AB4329343A362D5
:1027200000F0E6F8002002F099FD304A53699B0062
:102730009B085361E36A2B43E3622D4B1A68102117
:102740008A431A6098682B4A104080225201024343
:102750009A609A698A430A439A6127490A68274816
:1027600002400A601A68202082431A609C68244A4A
:1027700014408022120222439A609A6982430243E3
:102780009A610B681F4A13400B601F4B1A680421A3
:102790008A431A601A6815431D60DA30400002F05F
:1027A000C3FE002002F0DAFE184802F0AFF9002064
:1027B00002F02AF9002002F0E3FB011E0ED1094BC2
:1027C0009A6A0C218A439A629A6AB4318A439A625D
:1027D000302002F0D7FE00F08BF870BD0620FFF726
:1027E00087FFECE70000034000366E0100002F4039
:1027F00000000440FF8FFFFF00000240FFFFF0FFDA
:10280000FF7FFCFFFFFF0FFF00002240006CDC0297
:1028100010B5044802F0D2FE002801D0002010BDFF
:102820000148FCE7FC0000200000020610B5FFF79D
:1028300010FDFFF7EDFF10BDFEE710B502F0A0FEA2
:1028400010BD704710B5FFF7FCFF10BD70470000CA
:1028500010B5FFF7FBFF00F03FF8174C1749C022F7
:10286000200003F05BFA164B9C60BFF34F8F154AB4
:1028700009E0146899005068645844500133916825
:102880008B42F6D30C32104B9A4201D20023F6E76A
:102890000E4909E00A689800121800201060013300
:1028A0004A689342F6D30831094B994201D200237A
:1028B000F6E7FDF757FCC0460000002000000000CE
:1028C00000ED00E0A4790000B0790000B0790000CC
:1028D000B87900007047000010B5034B034A9A63B3
:1028E00072B6FFF7F7FF10BD000003406588EDAC3E
:1028F00070B5114B9B6A9B0903251D400124AC4018
:1029000002F0A4FB64080019E84014D00B4B1860D7
:10291000441E0B49200003F029F80130094B1870C0
:10292000FA218900200003F021F80130064B1860DD
:10293000C003064B186070BD000003401801002062
:1029400040420F0024010020200100201C01002033
:1029500010B5002100F036FF10BD10B5012100F0C8
:1029600041FF002801D1013010BD0020FCE710B567
:1029700000F06EFF80B210BD84B070B50400059108
:102980000692079305A900F0C3FC002808D1012591
:10299000200000F009FF280070BC08BC04B01847F4
:1029A0000025F5E710B500F0FFFE10BD70B505007D
:1029B0000E00FFF7F7FF2800FFF7CAFF00242800EA
:1029C000FFF7CBFF002804D1044B9C4201D801340F
:1029D000F5E731002800FFF7CAFF70BD912B00001A
:1029E00010B50249024801F063FD10BDC41B002070
:1029F0000000264010B50249024801F0B5FC10BDA8
:102A0000C41B00200000264010B50249024801F016
:102A10009EFC10BDC41B00200000264010B5010024
:102A2000024B5022024801F086FC10BDC41B00205E
:102A30000000264010B50100034B8022120103481C
:102A400001F087FC10BDC046C41B002000002640DA
:102A5000014B58647047C046C41B0020054B8022C0
:102A600092001A60044A116880231B060B4313600E
:102A70007047C04600E100E00000264010B5094A5A
:102A800009490A4801F07AFB002809D101240849C4
:102A9000084802F0F7FC002800D00024200010BDF8
:102AA0000024F4E7C41B0020A073000000002640AF
:102AB000E1290000FC78000010B50249024801F04D
:102AC000D6FD10BD181C00200000284010B582B0B3
:102AD0006A46144B11CB11C2134A1449144801F031
:102AE0004DFB00281CD101241249684602F0CAFCA3
:102AF000002800D000246B4600229B5E002B06DBE2
:102B00001F2213401E3A9A4013000B4A1360084AD2
:102B1000116880231B060B431360200002B010BD18
:102B20000024E1E704790000181C0020B8730000BD
:102B300000002840B92A000000E100E070B516004E
:102B40001C4B187059609A601B4A19001B4801F011
:102B50000FFC00282BD11A4D1749184801F006FC2C
:102B60000400012002F0FAFC013DE30301D5002D31
:102B7000F2D1002D05D0F8235B041C420DD00320B8
:102B800016E00D490D4C200001F0CAFB226880239D
:102B90001B061343236004200AE00749074801F09D
:102BA00085FCB04201D0032002E0002000E00320B9
:102BB00070BDC0466C1C0020181C0020000028407E
:102BC0001027000010B50B0011001A0003F0A6F842
:102BD000012010BDF8B506000D00FF239943084CF5
:102BE00080277F003A00200003F098F83A00310077
:102BF000200003F093F82100280000F069FAF8BDE6
:102C00007C1C002010B5C0B0040080225200FF21BF
:102C1000684603F055F86946200000F059FA00288C
:102C200002D1013040B010BD0020FBE7082900D9D7
:102C300001BE4368CB40012018407047072900D9E6
:102C400001BE01238B4003647047072900D901BEF0
:102C500001238B404364704710B5074A074C072196
:102C6000200002F08DFD236880221343236080231F
:102C70001B02A36010BDC04660740000000020402D
:102C8000094AB1239B00D358002B08DB064B1A6876
:102C900080210A431A60802212029A6070471368EA
:102CA00080210B431360F9E700002040024A1368BB
:102CB00080218B43136070470000204010B5002234
:102CC00009E00C4BB22189005958B324A4001B59C8
:102CD0008B4209D301320749B2239B00CB5898425B
:102CE000EFD3054B9A42ECD9024AB3239B00D05054
:102CF00010BDC04600002040EA4F000010B5104A49
:102D00000021104802F0A4FC002817D101300D4B1F
:102D10001A6801210A431A609C2252009B581942EA
:102D200003D0084A9A235B00D150064B8A225200F6
:102D300005499950802252049A6010BD0020E6E7B0
:102D40001474000000002040E7030000034A9823A9
:102D50005B000121D150D3587047C046000020408D
:102D600030B583B0010068460C4B020030CB30C256
:102D700002F088FB00280ED101306B4600229B5EDA
:102D8000002B06DB1F2213401E3A9A401300044A10
:102D9000136003B030BD0020EFE7C0460C7900009F
:102DA00000E100E010B5084A0849094801F06AFC52
:102DB000002807D1064A116880231B060B431360C5
:102DC000013010BD0020FCE77C1D0020D073000006
:102DD0000000274010B50A00002801D0002900D1CA
:102DE00001BE0100044800F065FD002801D000206C
:102DF00010BD0420FCE7C04600002740064AC1235E
:102E00009B00D058802149020143D150D15803483A
:102E10000140D150D358704700002740FFFFFEFF0C
:102E200010B5011E03D0034800F085FD10BD01BEA2
:102E3000F9E7C0460000274010B5002002F07CFDF5
:102E4000104B1B6C1B0C1B0719D1012402F086FDD3
:102E50000C4AD16A80231B060B43D362022002F086
:102E600063FB01F0F1FE0849084801F013FF002858
:102E700003D1074B044A12681A60200010BD0024D9
:102E8000E4E7C04600000340C01D002060E31600D8
:102E9000B81D002010B5074C206802F03DFD064B20
:102EA0001B6C1B041B0C22689A4201D0002010BD31
:102EB0000120FCE7B81D002000000340054B002264
:102EC0009A639A6B044B9A4201D00120704700200C
:102ED000FCE7C046000003406588EDAC084A094B9A
:102EE0009363926B9A4205D0074B00221A60074BFE
:102EF0001A607047024AD36A5B005B08D362F3E74B
:102F0000000003406588EDACB81D0020C01D002006
:102F100010B5024802F052FB10BDC0462801002047
:102F200010B502E0094B00221A60084BFF22120282
:102F30001B68934208D8FEF7A5F90028F2D1034A8E
:102F4000136801331360F0E7002010BDC41D00209A
:102F50000230800803D001300238FCD1C046C046A0
:102F60007047EFF3108072B6704780F31088704797
:102F7000144B9A68130F1B07A02109068B421CD023
:102F8000F02109068B4201D00F4817E00F4B9C46F9
:102F90006244132A0FD892000D4B9B589F460D4850
:102FA0000CE00D480AE0002008E00C4806E00C4860
:102FB00004E00C4802E00C4800E0002070470B4899
:102FC000FCE7C0460000104023005000FFFFFF0F49
:102FD0001479000001005200050052000800500062
:102FE0000900500021005200FF005200040052006E
:102FF00080239B02984204D2FF2303420CD000207E
:1030000070478022D200074BC318934206D2FF2399
:10301000034205D00020F3E70120F1E70020EFE7AD
:103020000120EDE7000C00F080239B02984201D2C2
:10303000000A7047024B9C466044000AF9E7C0460C
:10304000000C00F000B583B0084B0093084B0193CF
:10305000084B6A469A60084A5A60C046FFF788FFE4
:10306000064B802212061A6303B000BDB6E90000C9
:10307000C81D002000001040160000800000034022
:1030800010B5044B044A9A60044A5A60C046FFF7E0
:103090006FFF10BD00001040B6E800001500008072
:1030A00000B583B0064B0093064B0193064B6A466E
:1030B0009A60064A5A60C046FFF75AFF03B000BD47
:1030C000B6EA0000C81D0020000010401700008074
:1030D000F0B5C3B004000D00FFF7A6FF0600200006
:1030E000FFF786FF002848D0002D4AD080225200EA
:1030F000290002A802F012FE720A1206224B1343A4
:103100000093FF230193214B6A469A60204A5A603C
:10311000C046FFF72DFF051E30D1FFF722FF070045
:10312000FFF790FF051E03D03800FFF71EFF25E0D4
:10313000FFF7A6FF051EF7D1144B6A469A60154BA0
:103140009C4210D9144B00930196104B134A5A60BD
:10315000C046FFF70DFF0400FFF7A2FF0500002C9B
:10316000E2D02500E0E70E4B0093009B360433438A
:103170000093064B0B4A5A60EAE70B4D280043B018
:10318000F0BD094DFAE7C046B6D700000000104078
:1031900004000080FFEFFF0FB6EB00001800008076
:1031A000B6D800000500008021005200F0B50028CC
:1031B00000D195E0002A00D194E0072900D901BE92
:1031C0001368012B00D901BE53680F24A34300D01C
:1031D00001BE137A0F24A34300D001BED368032B92
:1031E00000D901BE1369012B00D901BE5369012B1F
:1031F00000D901BE1368072900D901BE012B00D9EF
:1032000001BE002B00D067E001338B40436455685A
:10321000072900D901BE0F232C009C4300D001BE1A
:103220004E007618846807231F00B740BC432B402C
:10323000B34023438360846901231E008E40B4435E
:10324000ED082B408B4023438361167A072900D970
:1032500001BE0F2334009C4300D001BE224BC31893
:103260001B0A224CA44663441B021C688F000F25D6
:10327000BD40AC430F253540BD402C431C60D56894
:10328000082900D901BE032D00D901BE4900C46838
:1032900003231E008E40B4432B408B402343C36066
:1032A0001369012B00D901BE8168114C21401B0616
:1032B0008024640423400B4383605369012B00D9AD
:1032C00001BE82680B490A405B06802189040B40DD
:1032D000134383600020F0BD01238B40036496E715
:1032E0000548F8E70448F6E70000FCBF000240008C
:1032F000FFFFFFFEFFFFFFFD01005A00034B9C464E
:10330000604443425841C0B27047C0460000C6BF47
:10331000F0B5D6464F464646C0B505000C0000281D
:1033200000D1EDE0002C00D1ECE02800FFF7E6FF33
:10333000002800D127E2002C00D12AE22378043BA8
:10334000DBB2032B00D901BEA378072B00D901BE45
:10335000E378012B00D901BE6379032B00D901BEAC
:10336000237A012B00D901BE237B072B00D901BE94
:10337000A37B012B02D9032B00D001BE2369023BA2
:10338000BA4A934200D901BE6369023BB74A9342ED
:1033900000D901BEA369023BB44A934200D901BEE1
:1033A000E369023BB14A934200D901BE226A8023FD
:1033B0005B029A4200D301BE626A80235B029A429A
:1033C00000D301BE2823E35C032B00D901BEE36ACE
:1033D0005B0C00D001BE2B68C022920513402B600D
:1033E000296822781201702313406278002A00D1E4
:1033F0008AE080221343A2785202E02000010240BA
:103400001343E27852038020800102401343227963
:10341000002A7BD080225203134362791206C02017
:10342000800402401343A279002A71D08022120541
:103430001343E279002A6DD08022D2051343194349
:1034400029606B688022120313406B606968227ADE
:1034500001231340627A002A5ED002221343A27A2B
:10346000002A5BD004221343E27A002A58D00822B3
:103470001343207B0001702202401343627B002A29
:1034800050D080221343A27B5204C020C0020240CD
:103490001343E27B002A47D08022120613431943CC
:1034A000696023699B059B0D6269120470490A409B
:1034B00013432B61A3699B059B0DE26912040A402B
:1034C00013436B61236A1B041B0C626A12041343CF
:1034D000AB612823E35C9B07EB61A16F4808654B58
:1034E0009C46604402F042FA0004030C9846E36AEA
:1034F0001B041B0C2B6200239A469C46002264E0AE
:1035000001BE0FE701BE10E7002273E7002283E748
:1035100000228DE7002291E700229FE70022A2E728
:103520000022A5E70022ADE70022B7E73238C0B29B
:10353000012862D89878012800D901BE187903289B
:1035400000D901BE0F2A66D81E78772030405E78F9
:10355000002E5CD08026760030439E78760280274D
:10356000BF003E403043DE78002E52D08026F60069
:1035700030431E793603C027BF013E4030430E0062
:103580002036B60070515878002802D1A07807285C
:1035900064D039484E000027375238488E004746DD
:1035A00037500F2A6ED85879002804D0012088405F
:1035B00056460643B2469B79002B04D001238B402C
:1035C000614619438C460132D2B2102A76D81100D6
:1035D00013000C339B001B59002BF4D018780728DC
:1035E000A8D943280BD84228A4D223289ED8222821
:1035F000A0D21238C0B201289CD901BE9AE7702827
:1036000098D0FAD37238C0B20128F6D892E70026D3
:10361000A2E70026ACE71E78772030405E78002EC7
:1036200018D08026760030439E7876028027BF002F
:103630003E403043DE78002E0ED08026F600304328
:103640001E793603C027BF013E403043A026B60096
:10365000A85198E70026E6E70026F0E7A07A0028C0
:1036600097D005484E00064F375296E7FD030000FD
:103670000000FF0300803801241E0020E01D002010
:1036800000F8FFFF5979002914D040219B79002BC5
:1036900012D020230B430021002900D001BE84203A
:1036A00080002B502858002900D001BE86218900B7
:1036B0006B5088E70021E9E70023EBE763461B0C2A
:1036C0001904002B00D001BE63461B041B0C88228A
:1036D0009200AB50AA58002900D001BE8A22920065
:1036E000AB5053461B0C1A04002B00D001BE5346AE
:1036F0001F043F0C8C239B00EF50EB58002A00D096
:1037000001BE8E239B00EF50636F002B19D01A6807
:103710008023DB059A4200D301BE636F5A681F4BBA
:103720001A4200D001BEC1239B001D4AEA50636FBC
:103730001A68C0239B00EA50636F5A68D0239B002D
:10374000EA50F0231B01EB583F2B04D0F0231B0160
:10375000EB58002B03D1F0231B010B22EA502379F5
:10376000002B0ED080221206E0239B00EA50237823
:10377000042B10D02A6B80239B0513432B6300205E
:1037800002E00022F0E70748E0BCBA46B146A8468E
:10379000F0BD0448F8E70020F6E7C04600FF30FF20
:1037A000FFFFFF3F0100060010B50368002B00DAA1
:1037B00010BD026880231B0613430360022001F042
:1037C000CDFEF5E7012900D901BE002907D0012966
:1037D00004D1426880235B02134343607047012396
:1037E0004362FBE710B5032900D901BE8B1EDBB293
:1037F000012B0FD9012484239B00C35823400129A6
:1038000014D0032914D00F4AA34213D0002A17D191
:103810000D4814E01024EEE784239B00C358234096
:10382000013A002BF0D1002AF6D1EDE7054AF8E77E
:10383000044AF6E784239B00C450C358002010BDFF
:103840000248FCE75555350202000600030004005B
:10385000102900D901BE0F2906D860318900085807
:103860000004000C00B27047102901D00020F9E7D5
:10387000A4239B00C0580004000CF3E730B5C0231C
:103880009B00C45808252B002340254206D0002366
:103890000DE0D024A4000459CC5401339342F8D352
:1038A00030BDD024A40005595C000D530133934270
:1038B000F7D3F5E710B51400C2239B00C358DB050E
:1038C000DB0D9A4200D31C002200FFF7D7FF200037
:1038D00010BD30B580239B00C45808252B00234021
:1038E000254206D000230DE0CD5C9024A4000551B4
:1038F00001339342F8D330BD5C00655A9024A40094
:10390000055101339342F7D3F5E710B5140003686E
:103910001B050ED5102282239B00C358DB05DB0D4F
:10392000D31AA34200D81C002200FFF7D2FF2000C8
:1039300010BD0822EFE730B503681B0502D5102241
:1039400000240CE00822FBE782239B00C358DB0520
:10395000DB0D9A42F8D090239B00C55001340D5DD9
:10396000002DF1D130BD03E090239B00C150013AFE
:10397000002AF9D1704710B5140003681B050ED555
:10398000102282239B00C358DB05DB0DD31AA34210
:1039900000D81C002200FFF7E6FF200010BD08221F
:1039A000EFE7000010B5030054683C4884423ED065
:1039B000822189005858C005C00D5C58E40B0121D4
:1039C00021400918106B401A5063106A000705D493
:1039D000D06A4018D062906A411A9162116A04203C
:1039E00001431162116A0338814311622C4900209E
:1039F000585010302B495C580221FF310C420ED038
:103A0000196849004908196000219966D9661C683F
:103A100080210906214319601B6840231843802335
:103A20005B055360536C002B00D0984710BDC2203B
:103A300080001858C00512D01078002824D0116AD0
:103A4000402001431162C12189005C58802040025E
:103A5000204358505858144C204058505958116A17
:103A6000202001431162116A103881431162196EDE
:103A70000E48014019660E4900205850083901309F
:103A8000585059581F30B5E70029E8D1116A402035
:103A900001431162D02189005958E0E7011000006C
:103AA000880F00004C0F0000FFFFFEFFFF5FFFFFCD
:103AB000C80F000010B51C4BC3589A0717D5F02249
:103AC00012010224845084588258520725D5802040
:103AD00080038A6802438A604868B8225203904291
:103AE00005D00A7B002A1BD0C02252034A60DA05A7
:103AF00004D588688022120402438A60DA0704D55C
:103B000088688022D20302438A601222FF32134265
:103B100002D0C0235B034B6010BD80204003D8E778
:103B2000B0225203E2E7C0460C0F000000230B4A0C
:103B300083500B4A8350836E002B04D0094B18220C
:103B4000FF32C2507047074B1422FF32C250182375
:103B50008366B8235B034B60F4E7C046C80F0000E0
:103B6000880F0000080F000070B53D4BC458036E6D
:103B70003C4A1340036600233B4A83503B4A835030
:103B80003B4A8350F0231B011822FF32C250C35816
:103B90008B68384A13408B604B7B002B2DD08B6990
:103BA000CB610223FF331C423AD0036E9B0F032BE1
:103BB00031D003685B005B08036000238366C36643
:103BC000026880231B0613430360036880235B05A0
:103BD0004B604B6C002B0FD04A7B002A3DD08020DD
:103BE000C0028968F82252040C001440114201D02E
:103BF000802424032043984770BD8D6982239B0055
:103C0000C258D205D20DC658F60B012333409B187B
:103C1000EB1ACB61C5E76307CBD4E405D6D5C8E77B
:103C20000B78002B10D0C1239B00C4588022520275
:103C30002243C250C2580F4C2240C250C358FC23EA
:103C40001B010122C250C3580B7B002B02D00A4B30
:103C50004B60BEE780235B05FAE780208002C0E767
:103C60000C0F0000FFFEFFFFC80F0000880F0000D0
:103C7000080F0000FFFFFEFF0000101070B50500E8
:103C80000C002423CB5C002B10D1CB6A002B0DD170
:103C90004B6C002B01D008209847E36A5A425341ED
:103CA000DBB22422A354314B233AEA502423E35CB1
:103CB000002B16D06378002B04D02B681B050ED583
:103CC000102200E00122FF212800FFF754FE236BA1
:103CD0001B182363236A08221343236270BD082242
:103CE000F1E7E26A012A10D96378002B3CD0013A4F
:103CF000A16A2800FFF709FE236B1B182363E36A00
:103D00001B1AE362A36A1B18A36282239B00EB5871
:103D1000DB05DB0D102BE1D0E36A012BDED1FFF7D1
:103D200020F9A36A1A7890239B00EA50F8231B011C
:103D30004026EE50EB58FFF718F9236B013323634D
:103D40000023E362A36A0133A362084BEE50637859
:103D5000002BC3D0236A022213432362636C002B1F
:103D6000BCD004209847B9E70122C1E7880F0000C2
:103D700070B505000C004A68A8235B039A4205D081
:103D80004A68A0235B039A4204D070BDC0235B0342
:103D90004B60FAE74A69012A10D94B78002B32D0E0
:103DA000013A21692800FFF7B0FDA3691B18A36140
:103DB00063691B1A636123691B18236182239B00BB
:103DC000EB58DB05DB0D102B02D06369012B1CD0F7
:103DD0006369002BD9D1237B002B2AD0184B4022BA
:103DE000EA50A8235B0363606378002BCDD0A26800
:103DF00080239B021343A360636C002BC5D08020FB
:103E000040029847C1E70122CBE7FFF7AAF82369F0
:103E10001A7890239B00EA50F8231B014022EA50B5
:103E2000EB58FFF7A2F8A3690133A3610023636194
:103E3000CEE7034B0022EA50B0235B036360D3E775
:103E4000880F000070B505000C00436E10261E4060
:103E50004B6C002B03D0002E11D001209847002E70
:103E60000FD0254B6360236A012213432362636BE7
:103E7000236324230021E154204BEA5070BD02202B
:103E8000ECE71F4B6360236A1022134323621D4B30
:103E90000F3AEA502378002B19D0E66B002E16D08B
:103EA0002A6E80239B0113432B66E66B102E05D9E7
:103EB0003300103B102B1AD8113E08E0013E2A6E49
:103EC00080231B0213432B660E4B0022EA502B6803
:103ED0001B050ED510239E4200D301BEC1218900CF
:103EE0006B58FF229343324013436B50C6E70726BB
:103EF000EDE70823EFE7C04602100000880F00003E
:103F000001100000C80F000070B504000D008B6C9C
:103F1000002B38D001688022520208001040114264
:103F200007D0294AA258402108001040114200D071
:103F30000220226E120508D4234AA25880210E00C6
:103F40001640114200D00126304300281DD098476A
:103F5000FC231B010122E250E358002809D1F4237D
:103F60001B010F32E250E358184BD222FF32E250CD
:103F70000CE001280AD1154BC222FF32E250D222B6
:103F8000FF32E25002E0002000E0002081239B008D
:103F9000E158802252020A43E250E2580C490A409A
:103FA000E250E358022805D0E36E002805D1012233
:103FB0001343E366002802D070BD0222F8E729000F
:103FC0002000FFF73FFFF7E74C0F0000480F00000D
:103FD000FFFFFEFF70B505000C004B6888225203FE
:103FE000934204D09022520393421DD070BDD0233F
:103FF0009B00C2580B691A708B6901338B614B6946
:10400000013B4B61002B05D00B6901330B6104238D
:104010008366EBE70B7B002B03D0C0235B0363605D
:10402000E4E7B0235B03FAE709696269FFF742FC42
:10403000A3691B18A36163691B1A636122691218C3
:104040002261012B12D9082B31D8023B2A681205B4
:104050002FD51022934200D301BEC12080002A58E0
:10406000FF218A4319400A432A50BFE72B6E124AA8
:1040700013402B666369012B06D0104B0022EA50D7
:10408000B0235B036360B1E72B681B050DD51023DC
:10409000002B00D101BEC1229200AB58FF218B43FF
:1040A000AB5088235B036360A0E70823F0E7072396
:1040B000CCE70822CEE7C046FFFEFFFFC80F000096
:1040C00070B505000C00CB6B002B4DD00B78002B8E
:1040D00010D1C36E01221343C366D0239B00C15885
:1040E000A26B236CD154236C01332364E36B013B3B
:1040F000E36340E0C1239B00C358FF221A40013212
:10410000896BFFF7D7FB236C1B182364E36B1B1A27
:10411000E363A26B1218A263102B05D91A00103AA0
:10412000102A1DD8113B0BE02A6E80231B0213437B
:104130002B66E36B002B00D0013B0F4A0021A950F6
:104140002A6812050ED51022934200D301BEC12069
:1041500080002A58FF218A4319400A432A500AE066
:104160000723EDE70822EFE7C36E02221343C3667D
:10417000014B0022C25070BDC80F000070B500286E
:1041800000D1B3E0002900D1B2E0002A00D1B1E0B3
:104190000B78013BDBB2022B00D901BE4B78002B20
:1041A00003D04B79002B00D001BE0323CB56002B4C
:1041B00039DB0B79DB0700D501BE0B69102B00D969
:1041C00001BECB68102B00D901BE0C784B79002BB7
:1041D0002BD080235B020D7A002D28D080256D0026
:1041E0002B4303608B79002B23D1802636010D6988
:1041F000013D0F232B403343CD68013D2D01FF26A8
:1042000035402B430D78AD072B43036605688023AB
:104210001B012B4303600B78012B0CD04B7A002B36
:104220000AD0012308E001BEC3E70023D3E700253D
:10423000D6E70026DBE70023002B4CD02E4EC0250E
:10424000AD004651002B49D02C4B03674B78002B17
:1042500046D00F25C1239B00C550CD786D00FF23AC
:104260002B400D792D042B43C425AD0043518023F1
:104270009B000825FF35C5508B78002B32D0FF3DC1
:1042800081239B00C55000231D4D43511D4D4351BB
:104290001D4D43511D4D43511D4D4351022C23D003
:1042A000D224FF341B4BC4504B7813708B7853705F
:1042B000898A5023D15280235B0553600023936089
:1042C000936113621364D3631363D362536493647F
:1042D000D364002070BD0826FF36B0E70E4BB4E76C
:1042E0000025B7E70125CBE70024DBE70B48F1E722
:1042F0000A48EFE70948EDE70703000003002A003A
:10430000C80E0000880E0000C80F0000880F0000D3
:10431000080F0000480F000013102A000120AA0017
:1043200003685B005B08036080235B054B60002330
:104330008B600B627047002A01D0002905D099627A
:10434000DA6200221A635A63704701BEF7E7486BCE
:104350007047002A01D0002904D09963DA63002253
:104360001A64704701BEF8E7086C704788687047A8
:1043700070B504001500002967D08B68002B02D0AF
:104380004B68002B63D00023CB56002B61DB424BE4
:104390000022E2506B68DB0000D47AE00B785B000F
:1043A000FF261E4080225202AA604B682B618B6858
:1043B0006B610023AB61EB61097B29736B73F023A5
:1043C0001B011821FF31E150E35881239B00E15884
:1043D0000A43E250E25831490A40E250E3586A6821
:1043E00080235B059A4236D0636E9B063ED5092337
:1043F000A3666B69002B3BD090239B00E650A02363
:104400005B036B606B78002B3FD00823226812059A
:104410003DD51022934200D301BE8121890062580C
:10442000FF20824313436350FEF79BFD1C4B012288
:10443000E2501C4B1422FF32E250FEF796FD0020A2
:10444000154BD222FF32E25070BD01BE95E701BE8E
:1044500099E701BE9BE790239B00E650F8231B01E0
:104460004022E250E3580223A366C8E70123BFE7D6
:10447000FEF777FD90239B00E650F8231B014022B6
:10448000E250E358FEF771FDB9E70123BEE70822C9
:10449000C0E70548D4E7C046480F0000FFFFFEFF15
:1044A000880F0000080F00000220AA00C8697047AA
:1044B000F8B504000E00424BC358DB0707D5802334
:1044C0005B014B60813BFF3B0122C250C3583D4B17
:1044D000E5580223FF331D422BD0336AEA0526D567
:1044E0008022520013433362374B0022E2501023E4
:1044F0001D43364BE358DB0730D52368DB032BD550
:104500005023F05A002824D12E4BE2584023134068
:104510005A1E9341DFB2002B21D131002000FFF75A
:10452000CFFDFC231B010122E250E35817E080225B
:10453000D8E7EB06DDD5C2239B00E358DB05D8D0D6
:10454000F36B002BD5D00123214AA3501E4AA35060
:10455000CFE701F003F8D7E70027DEE70027EB06F7
:1045600008D4C0232B4212D11A4BE35841221A42DD
:104570001CD1F8BD320039002000FFF713FAF423F4
:104580001B011022E250E3580E4BE558E9E73100D9
:104590002000FFF7B9FCE8231B010122E250E35899
:1045A000F4231B01BF32E250E358DDE73100200065
:1045B000FFF764FBF8231B010122E250E358D8E720
:1045C0008C0E00004C0F0000C80F0000CC0F000044
:1045D000C40F00008C0F000070B504000D00E02334
:1045E0001B01C658B3070CD5836E002B06D00023E1
:1045F00083668A6880235B0413438B60C0235B035C
:104600006B60F3070ED4330713D476071BD46A68A4
:10461000C0235B039A4220D06A68B0235B039A42AE
:1046200020D070BD29002000FFF744FA04239E43E8
:10463000E9E729002000FFF7CDFCFC231B01012244
:10464000E250E358E1E729002000FFF791FBF8234F
:104650001B010122E250E358D9E729002000FFF7AF
:1046600083FAD9E729002000FFF760FAD9E710B5EF
:104670004B68DB0202D5FFF7AFFF10BDFFF718FF55
:10468000FBE70000F0B5002800D179E1002900D156
:1046900078E10B78022B00D901BE4B7B023BDBB2E9
:1046A000062B00D901BE8B7B002B04D0022B02D03D
:1046B000032B00D001BE2223CB5C012B00D901BE0D
:1046C0002823CB5C012B00D901BE0B78012B07D925
:1046D0008B7F002B09D04B68013B062B05D903E0EB
:1046E0004B68083B082B00D901BE8B68053B042BA7
:1046F00000D901BE4B69FF2B00D901BE8B69FF2B8E
:1047000000D901BE8B7C002B07D00B78002B03D186
:104710008B68092B00D185E001BE2023CB5C002BE8
:1047200003D00B78002B00D001BE8C6B974B1C4242
:1047300000D001BE0C6C964B1C4200D001BE0B7821
:10474000022B74D04C68013C0B7F002B74D0802569
:104750006D020F2323402B438024A40423430360D2
:1047600003688C68082C69D88024240123430360E3
:104770004C6B03681B0563D510239C4200D301BE1C
:10478000CC6B03681B055DD510239C4200D301BE92
:104790004C6A03681B0557D510239C4200D301BE09
:1047A0000B781B06C024A404234003644B7F002B1A
:1047B0004CD040238C7C002C4AD08024E40023433E
:1047C00020240C5D002C45D08024640123430C7C04
:1047D000002C41D08024640023434C7C002C3DD02D
:1047E0008024A4002343CC6A013C2404F0252D033B
:1047F0002C4023434D7B013D07242C4023438D7BDC
:104800002D0130242C40234383640B7B002B27D0C5
:1048100080246400CB7B002B24D10B78022B49D061
:10482000002321E08B7B002B00D176E774E78B7FA0
:10483000002B87D1002487E700258AE7002495E72D
:1048400008239AE70823A0E70823A6E70023B1E797
:104850000024B4E70024B9E70024BDE70024C1E741
:104860000024D7E780239B001C438D68013D0F2364
:104870001D402C43C026B60084514D69FF242C40B6
:104880008D692D04FF273F043D402C43C425AD0016
:104890004451CC6A85592B4003339C4201D3102CE0
:1048A00000D901BECB7F002B07D00B78012B5AD04B
:1048B000002503E080239B00D6E700254C7B013CCC
:1048C000072323402B438D7B2D0130242C40234391
:1048D00043640B7B002B49D080256D008C68013C24
:1048E0000F2323402B438024A40003514C6BFF2350
:1048F0002340C124A40003512123CB5C002B37D0DB
:1049000080239B0422240C5D012C33D000242343FC
:1049100028240C5D012C30D0002423434D6AFF2451
:1049200025402B430365CB6B1C4081239B00C45067
:104930008B6B184C2340184C03510B6C174C2340C5
:10494000174C0351002A1FD000235360136093605B
:10495000D3601362D3625363897F3033D154114BD8
:1049600093630020F0BD80256D00A7E70025B5E723
:104970000023C7E780246404C9E780246402CCE7ED
:104980000948EFE70848EDE70020EBE792F4FFFF66
:104990008CF8FFFF6D0B0000C80F000073070000CC
:1049A000880F0000EFCDAB000160AA00014B186832
:1049B0007047C046501E00200B4B1B6B002B01DBC9
:1049C00000207047084A094BD3589B001C221A400C
:1049D0005101891A8B015B1ADB009B189801044B6B
:1049E0009C466044EDE7C04600000340080F00000D
:1049F00000366E01034B1B685B0001D4002070473A
:104A00000120FCE70000224070B50400012865D8B1
:104A1000344B1B6B002B01DB334860E0FFF7EAFFF0
:104A2000A0425DD0002C13D1304A136830490B40AE
:104A300013602C492F4BCA5892001C2313402E4A56
:104A4000944663441B78DBB22C4A8B50002046E02E
:104A5000012C01D02A4842E0244B1B68002B01DBCB
:104A600021483CE01F4A254B0021D150FFF7A4FF0D
:104A70008023DB019C466044C30B013B5B055B0D5F
:104A8000A02252031343194CA3601E4B1D6B302010
:104A900000F078FD22688023DB05134323600024A7
:104AA0000DE0012000F040FD103410498B68164ADB
:104AB0001340A205FF208005024013438B60FF2CAA
:104AC000EFD9012000F030FD084A9168FF239B05D3
:104AD0000B4393600B4B1D63002000E0084870BD42
:104AE0000020FCE70000034003004A0000002240D1
:104AF000FFFFFFBF080F000065F3FF0F0C0F000062
:104B000001004A0000001040FFFF3FC0F0B5D6464C
:104B1000474680B583B004003A4B1B6B002B6BDA21
:104B2000394B984213D0394B984210D0384B9842A9
:104B30000DD0384B98420AD0374B984207D0374BAC
:104B4000984204D0364B984201D0364855E0FFF7E2
:104B500033FFA04201D100204FE0334BE01833492E
:104B600000F004FF0400FEF7FCF90600FFF742FF27
:104B70000190071E1FD1234B00212D4A99502D4A29
:104B8000A2181278D2B22C481A50F1221201995070
:104B90002A4AA2181278D2B229495A50A4083220BF
:104BA000FEF7D6F9002C0AD1002F21D13000FEF7F4
:104BB000DCF9002021E00020FFF726FFDBE7114BA6
:104BC0009A461B4D5B59072290469343621E41460D
:104BD0000A401343524653513220FEF7B9F9534667
:104BE0005A5943469A432340134352465351DBE7F5
:104BF0000198FFF709FFD9E7124803B0C0BCBA46D5
:104C0000B046F0BD0000034000366E01003FAB012E
:104C10000048E80100512502005A620200639F0229
:104C2000006CDC0201004A0000CA91FE40420F0005
:104C3000080F000065F3FF0F0C0F00004CF3FF0F8F
:104C4000180F000003004A000B4B1B78002B11D1FA
:104C50000A4B01221A700A494A6B0A4B1A408023F8
:104C60005B0013434B6308490A68084B1A40084B22
:104C700013430B607047C046581E0020541E00208E
:104C800000000340FFF0FFFF18000340F0F0FFFFBB
:104C90000809000070B50C00354B1D68354B5B6B87
:104CA000354A134001006439344A914257D8002CE8
:104CB00057D0334A954201D0324851E08022520009
:104CC000934201D02F484BE02F4B1B78002B3CD058
:104CD0002E4B1B68002B46DA2D4B1B68002B44D053
:104CE000642545432B4B9C4665442B49280000F026
:104CF0003DFE0600264B1B6843438022D2039342AD
:104D000016D3234B1868254B19684843890A00F0CD
:104D10002DFE282100F02AFE06002149280000F07F
:104D200025FE70432060184B00221A70002017E007
:104D3000174B1868194B19684843890A00F016FE8A
:104D40007043184900F012FEECE7144B1B689B0AF5
:104D50000E4A13600C4B01221A70134800E01348EE
:104D600070BD1248FCE71048FAE70648F8E7C0466D
:104D700018000340000003400F0F00001C841E00B9
:104D80000809000003004A00461E00201C000340E2
:104D900020000340E2040000C409000018010020C4
:104DA000A0252600409C00000400490001004A00A4
:104DB000074B9B68002B01DB00207047044BDB682E
:104DC000DB0702D4034B1868F7E70020F5E7C0467D
:104DD00000002F40481E002010B5FFF7E9FF002813
:104DE00016D10C4A116A80231B060B43136208E09C
:104DF000084B1A6A02210A431A621A6A8A431A6223
:104E000001300728F4D9034A136A5B005B08136278
:104E100010BDC04600002F4010B5194B5B691B0D3B
:104E2000032214001C401A420DD1154B5B69002B64
:104E300003DA134B9B69DB0719D4FFF7B9FF00288E
:104E400017D1200010BD032C0BD10D4B5B69002B3B
:104E500001DB0024F5E70A4B9B69DB070BD4002438
:104E6000EFE7FFF7A5FF002807D10024E9E70124B9
:104E7000E7E70224E5E70124E3E70224E1E7C0468F
:104E800000002F4010B5002800D001BE002800D03F
:104E900010BD064A5369064803400905C020800337
:104EA00001400B435361FFF797FFF1E700002F40EC
:104EB000FFFFCFFF002800D001BE002913D000283B
:104EC00010D100290ED0094B5B690B70180A3F22E4
:104ED00002404A70980B032202408A701B0C072282
:104EE0001340CB70704701BEE9E7C04600002F4079
:104EF00070B582B0041E00D001BE002C03D1154B4A
:104F00001B689B070DD4FFF753FF0600002C00D051
:104F100001BE002C1BD10F4B5B69002B05DB200071
:104F200016E0FFF749FD0600F0E701AD290020007B
:104F3000FFF7C0FF73082A78534369780131AA78D4
:104F400091404808C01800F011FD400000E000202A
:104F500002B070BD00002F4010B5FFF75DFF0128C3
:104F600002D0FFF725FF10BD0020FFF7C1FFFAE7D1
:104F7000024B9B6A032018407047C0460000034064
:104F800010B504000A2851D82B4BC340DB0701D4CD
:104F90002A4810BDFFF7ECFF844249D0002C03D112
:104FA000274B1B6B002B0DDB012C07D0022C12D0E2
:104FB0000A2C17D0062C1FD02248EAE7FFF7F6FC90
:104FC0000028F3D01E498B6A0322934322401343E7
:104FD0008B620020DDE7FFF71FFF0028E8D0FFF716
:104FE000FBFEEFE7FFF7E4FE0028E3D002210020FC
:104FF000FFF748FF083CE5E7134B5B69002B19DA24
:10500000114B9B69DB0701D40E48C2E7FFF7D0FEC6
:10501000002805D000210020FFF734FF043CD1E731
:1050200003210020FFF72EFF0224CBE70348B0E75F
:105030000020AEE70348ACE74704000001004A0047
:105040000000034003004A0000002F4070B5104BE1
:105050009B6A9B0803251D400124AC40FFF788FF95
:1050600001280CD002280ED0002804D000236008AC
:10507000C018E84070BDFFF79FFC0300F7E7FFF79B
:1050800095FC0300F3E7FFF767FF0300EFE7C04677
:105090000000034010B5012801D00C4810BD0B29B9
:1050A00010D880235B029A420ED20948C031890091
:1050B0000B58084C23401202074C224013430B505C
:1050C0000020EBE70148E9E70048E7E701004A0074
:1050D00000000140FF0000FF00FFFF0070B5022844
:1050E00003D003281FD0214870BD0429F9D880249B
:1050F0006402A242F5D21F2BF3D81D4C0131FF31BF
:10510000890008591B4D284012021B4D2A400243BA
:105110000A510A59F8208243D800FF230340134361
:105120000B510020E0E7002919D180204004824281
:1051300017D21F2B17D80E4D08004130FF308000CA
:105140004459FF2634401202224342514259F82466
:10515000A243DB001E40324342510800C4E703482B
:10516000C2E70248C0E70148BEE7C04601004A0066
:1051700000000140FF0000FF00FFFF0012281BD8C5
:10518000012905D0022906D0032907D00C4814E0D4
:105190000B2A05D9F6E7042A02D9F5E7002A0DD132
:1051A0008901FF230B403F210A4013434030800018
:1051B000044A8350002000E0014870470048FCE7A3
:1051C00001004A0000000140012805D0022806D055
:1051D000032807D00C4813E00B2905D9F6E704296A
:1051E00002D9F5E700290CD18001FF2303403F22BB
:1051F0000A401343054A1343054A1360136800200D
:1052000070470148FCE7C04601004A0000FF0080EB
:1052100000000140012805D0022806D0032807D04D
:105220000C4813E00B2905D9F6E7042902D9F5E764
:1052300000290CD18001FF2303403F220A40134381
:105240008022D2051343044A1360002070470148AE
:10525000FCE7C04601004A0000000140022811D8C6
:10526000012809D008498B6A30229343000102408B
:1052700013438B6200207047034B1B6B002BF1DB49
:105280000248F8E70248F6E70000034003004A003E
:1052900001004A0070B50500042927D00AD8012969
:1052A0001AD0022904D15E4B00221A70002012E0AD
:1052B0005C4810E008290DD15B4B1B78002B47D1CF
:1052C0005A4B1B78002B00D0A0E0554B00221A70DF
:1052D000002000E0534870BD554B1B78002B00D0D8
:1052E00099E04F4B01221A700020F4E7514B1B6BE1
:1052F000DB0F4E4A137023D1FFF73AFE02384342C8
:105300005841C0B2484B1870002800D185E0474B87
:105310001B78002B03D1474B802212061A633020E2
:1053200000F030F90020FFF72BFE434A5369DB0FF2
:1053300042490B709368DB0F414A13700020CAE7A3
:10534000FFF758FB3F4B18700020FFF75DFBD3E7DA
:10535000FDF7CEFA3A4B1B78002B0FD13A4C374B66
:105360001B78002B2ED1002C2ED16B68002BA7D0E0
:105370001B68002BA4D002209847A1E7324C2E4B8B
:10538000DB68DB0706D5002C04D0013C012000F0CF
:10539000E5F8F4E7002CE2D16B68002B00D18FE731
:1053A0001B68002B00D18BE70120984788E7013C60
:1053B000012000F0D3F8204B9B69DB07D3D4002CED
:1053C000F5D1D0E7FA24F6E70220FFF7D9FD194B13
:1053D0009B6A9B0903251D400124AC40FFF736FE64
:1053E00064080019E840194900F0C0FA00F0CAF852
:1053F000FDF77EFA0D4B1B78002B00D060E70020F4
:10540000FFF702FB0B4B00221A6359E70D4B18788C
:10541000FFF7FAFA59E703485DE700205BE7C0466B
:10542000581E0020FF0042004C1E0020551E002088
:10543000541E00200000034000002F40571E002093
:10544000471E0020561E00201027000040420F007B
:10545000094B9A68094B9A4204D01030084B8000DF
:10546000C0587047002905D01030044A830098586E
:105470009950F6E701BEF7E700ED00E000000020DC
:1054800000000000F0B5C64600B5002841D04368D2
:10549000032B00D901BE0023C25E4468002A1BDB37
:1054A00093081D4DA846C0339B005F590325154046
:1054B000ED00FF221600AE40B743A4012240AA40EF
:1054C0003A4344461A51154B9A68154B9A421AD0E2
:1054D000002080BCB846F0BD0F231340083B9B085A
:1054E00006339B000D4DAC4663445E6803252A409D
:1054F000D200FC352F009740BE43A40125409540C3
:1055000035435D60DFE70023C05EFFF7A1FF0020A9
:10551000DFE70448DDE7C04600E100E000ED00E021
:10552000000000200100560010B5040006E0084B02
:105530001868FDF70DFD074B9C46644480231B0251
:105540009C42F4D8044B18686043FDF701FD10BD80
:105550001C0100200080FFFF2001002010B5034B3C
:105560001B785843FDF7F4FC10BDC0462401002011
:10557000024B5B6D192018407047C0460000034085
:10558000FEE70000102803D9202813D8012100E0ED
:1055900000210948036B032293430A40134303632A
:1055A000036B10229343002900D010210B43024AC1
:1055B000136370470221ECE70000104030B500286B
:1055C0003CD0C368002B3BD00368002B3AD0057950
:1055D0001E4BAA00D258002A28D0140000E01A005E
:1055E0005369002B07D0824205D0197E027E91427A
:1055F000F5D81C00F3E7824226D02369002B08D09F
:10560000636943610461002B00D01861606101206F
:1056100015E0027E237E9A42F2D2446100230361A8
:1056200020610A4BAD00E850012008E0074BAD00B7
:10563000E850002343610361012000E0002030BDF9
:105640000020FCE70020FAE70020F8E75C1E0020BD
:1056500030B5002800D18CE0002A00D18BE05368DF
:105660001B061B0C9468A4048025ED022C402343E8
:10567000D4682404C025AD022C40234314692406B9
:10568000E025ED042C402343147F002C5FD001243F
:1056900023430C1DA4012350D368002B59D18B0147
:1056A000C3180933FF3300241C601369002B0AD18F
:1056B00055698B01C3181C000D34FF3425609469B3
:1056C0001133FF331C60146889014018030015333F
:1056D000FF331C60916A0F230B40116B0902F02409
:1056E000240121400B43916B0904F0242403214041
:1056F0000B43116C0907090C0B43916C0901FF2442
:1057000021400B4301002131FF310B60516A03231B
:105710000B40D56A2D01302129400B43516B090202
:10572000C025AD0029400B43D16B89010C402343B8
:10573000546CA4000C2121400B4301002531FF31A2
:105740000B60136A3930FF300360002030BD002445
:105750009EE7012B06D08B01C3180933FF330124C8
:105760001C60A2E714688B01C3180933FF331C6067
:105770009BE70248EAE70148E8E7C0460100B600B7
:1057800070B5002800D1C0E0002A00D1BFE0282376
:10579000D35C002B3FD00123147F002C3DD002248A
:1057A00023431469A4048025ED022C40234394680C
:1057B0002404C025AD022C40234315682C06E026A6
:1057C000F60434402343146B566B760034432405AF
:1057D000C026B60334402343946BA4002343052D15
:1057E0001DD054682406240C23430C1DA40123500F
:1057F0001368062B17D09368002B00D06BE08B0149
:10580000C3181C000934FF34002525602933FF33F9
:1058100031241C6012E00023BEE70024C0E7D468F6
:105820002406240CE0E78B01C3181C000934FF3464
:10583000012525602933FF333F241C60146A890148
:10584000401803000D33FF331C60516A04331960A4
:10585000516904331960916904331960116C0F2385
:105860000B40916C0902F024240121400B43116D7F
:105870000904F024240321400B43916D0907090C0E
:105880000B43116E0901FF2421400B43010021311C
:10589000FF310B60D16B03230B40556C2D01302180
:1058A00029400B43D16C0902C025AD0029400B43B0
:1058B000516D89010C402343D46DA4000C2121407B
:1058C0000B4301002531FF310B60D36A3930FF30C3
:1058D0000360002070BD012B0BD08B01C3181C008E
:1058E0000934FF34012525602933FF3312241C605D
:1058F000A4E755698B01C3181C000934FF342560E7
:105900002933FF331C241C6098E70248E2E7014872
:10591000E0E7C0460100B60080235B02984200D356
:1059200001BE044A136C1B0C1B040004000C03434F
:1059300013647047000003400F2800D901BE054AD8
:10594000136C05490B400004F02109030840034390
:105950001364704700000340FFFFF0FF024B012279
:105960005A645B6C7047C046000003400022430845
:105970008B4274D303098B425FD3030A8B4244D317
:10598000030B8B4228D3030C8B420DD3FF22090259
:1059900012BA030C8B4202D31212090265D0030B18
:1059A0008B4219D300E0090AC30B8B4201D3CB030E
:1059B000C01A5241830B8B4201D38B03C01A524150
:1059C000430B8B4201D34B03C01A5241030B8B4252
:1059D00001D30B03C01A5241C30A8B4201D3CB023D
:1059E000C01A5241830A8B4201D38B02C01A524122
:1059F000430A8B4201D34B02C01A5241030A8B4225
:105A000001D30B02C01A5241CDD2C3098B4201D33C
:105A1000CB01C01A524183098B4201D38B01C01ABA
:105A2000524143098B4201D34B01C01A5241030931
:105A30008B4201D30B01C01A5241C3088B4201D3E0
:105A4000CB00C01A524183088B4201D38B00C01A8D
:105A5000524143088B4201D34B00C01A5241411AB4
:105A600000D20146524110467047FFE701B50020C1
:105A700000F0F0F802BDC0460029F7D076E7704785
:105A800003460B437FD4002243088B4274D303099F
:105A90008B425FD3030A8B4244D3030B8B4228D340
:105AA000030C8B420DD3FF22090212BA030C8B4266
:105AB00002D31212090265D0030B8B4219D300E006
:105AC000090AC30B8B4201D3CB03C01A5241830B8B
:105AD0008B4201D38B03C01A5241430B8B4201D33B
